:100000000C9434000C9451000C9451000C94510049
:100010000C9451000C9451000C9451000C9451001C
:100020000C9451000C9451000C9451000C9451000C
:100030000C9451000C9451000C9451000C945100FC
:100040000C9451000C9451000C9451000C945100EC
:100050000C9451000C9451000C9451000C945100DC
:100060000C9451000C94510011241FBECFEFD8E026
:10007000DEBFCDBF11E0A0E0B1E0EEE7F9E002C0E5
:1000800005900D92AA30B107D9F711E0AAE0B1E0CE
:1000900001C01D92A831B107E1F70E9410010C9434
:1000A000BD040C9400004091080150910901809119
:1000B0000A0190910B0120E030E00DC084179507F4
:1000C00028F45E9A2B9A5D985B9804C05D9A5B9ABF
:1000D0005E9A2B9A01968436910580F32F5F3F4FED
:1000E00080E090E065E025353607A9F710920B0116
:1000F00010920A01089540910801509109018091E0
:100100000A0190910B0120E030E00DC084179507A3
:1001100028F45E982B985D9A5B9A04C05D9A5B9A6E
:100120005E9A2B9A01968436910580F32F5F3F4F9C
:1001300080E090E065E025353607A9F710920B01C5
:1001400010920A01089588E893E124EF31E0F90163
:100150003197F1F70197D9F74091080150910901C2
:1001600080910A0190910B0120E030E00DC08417CE
:10017000950728F45E9A2B985D985B9A04C05D9A67
:100180005B9A5E9A2B9A01968436910580F32F5FD5
:100190003F4F80E090E06DE02D393607A9F71092CF
:1001A0000B0110920A01089588E893E124EF31E0F1
:1001B000F9013197F1F70197D9F740910801509172
:1001C000090180910A0190910B0120E030E00DC0FF
:1001D0008417950728F45E982B9A5D9A5B9804C063
:1001E0005D9A5B9A5E9A2B9A01968436910580F30C
:1001F0002F5F3F4F80E090E06CE02B3C3607A9F783
:1002000010920B0110920A010895569A239A559A5A
:10021000539A2198199A25981D9A24981C9A089502
:100220004F925F926F927F928F929F92AF92BF9206
:10023000CF92DF92EF92FF920F931F93DF93CF93B2
:10024000CDB7DEB72A970FB6F894DEBF0FBECDBF8D
:100250000E94050183B190E08071907090930D0130
:1002600080930C010E94F7038CE090E00E94480408
:100270004E010894811C911C46E0E42EF12CEC0EFA
:10028000FD1E32EEC32E3FEFD32E23EEA22E2FEF14
:10029000B22E98EE692E93E0792E84EF482E81E0FD
:1002A000582ECEC083B190E08071907020910C01E7
:1002B00030910D018217930789F01C9906C081E0E7
:1002C00090E090930F0180930E0183B190E08071D4
:1002D000907090930D0180930C0104C010920F0157
:1002E00010920E0119993DC080911601909117014D
:1002F000019660E971E00E9465049C0190931701EA
:10030000809316012F58314069F48091100190912B
:1003100011010196909311018093100181E090E00A
:100320000E94480480911001909111014F97CCF0E8
:10033000D0921101C0921001809116019091170185
:10034000019660E971E00E9465049C019093170199
:10035000809316012F58314021F4B0921101A092E0
:1003600010018091100190911101B4014AE050E018
:100370000E948C0480E062E00E94400480E091E0F2
:100380000E94340483E062E00E944004C4010E94A1
:1003900034041D993DC0809114019091150101967E
:1003A00060E971E00E9465049C01909315018093BF
:1003B00014012F58314069F480911201909113017A
:1003C0000196909313018093120181E090E00E94C6
:1003D000480480911201909113014F97CCF0D09274
:1003E0001301C092120180911401909115010196A0
:1003F00060E971E00E9465049C019093150180936F
:1004000014012F58314021F4B0921301A09212012F
:100410008091120190911301B7014AE050E00E94CF
:100420008C0480E061E00E94400484E091E00E943E
:10043000340483E061E00E944004C7010E94340458
:1004400080910E0190910F01009709F42BCF019735
:1004500039F480E197E2F2013197F1F70197D9F78A
:100460008091100190911101181619063CF58091A8
:100470001201909113011816190604F50E94A300A9
:1004800000E010E004C00E9453000F5F1F4F8091F6
:1004900010019091110108171907ACF30E94D400C4
:1004A00000E010E004C00E9453000F5F1F4F8091D6
:1004B00012019091130108171907ACF380911001F4
:1004C00090911101181619065CF580911201909116
:1004D000130197FF25C00E94A30000E010E004C0B4
:1004E0000E9453000F5F1F4F8091100190911101E6
:1004F00008171907ACF30E94A30000E010E004C045
:100500000E9453000F5F1F4F8091120190911301C1
:1005100097FF03C0909581959F4F0817190784F3A3
:10052000809110019091110197FF2CC080911201D0
:1005300090911301181619062CF50E94D40000E0C2
:1005400010E004C00E9453000F5F1F4F8091100104
:100550009091110197FF03C0909581959F4F0817C7
:10056000190784F30E94A30000E010E004C00E9479
:1005700053000F5F1F4F80911201909113010817D4
:100580001907ACF3809110019091110197FF30C0D1
:10059000809112019091130197FF2AC00E94D4000C
:1005A00000E010E004C00E9453000F5F1F4F8091D5
:1005B00010019091110197FF03C0909581959F4F75
:1005C0000817190784F30E94D40000E010E004C06B
:1005D0000E9453000F5F1F4F8091120190911301F1
:1005E00097FF03C0909581959F4F0817190784F3D3
:1005F0008091100190911101892BA9F48091120131
:10060000909113011816190674F400E010E004C06C
:100610000E9453000F5F1F4F8091120190911301B0
:1006200008171907ACF38091100190911101892BE3
:10063000C9F4809112019091130197FF13C000E05B
:1006400010E004C00E947B000F5F1F4F80911201D9
:100650009091130197FF03C0909581959F4F0817C4
:10066000190784F3809110019091110197FF1BC02D
:100670008091120190911301892BA9F40E94D4005A
:1006800000E010E004C00E9453000F5F1F4F8091F4
:1006900010019091110197FF03C0909581959F4F94
:1006A0000817190784F38091100190911101181611
:1006B0001906B4F48091120190911301892B81F4F1
:1006C0000E94A30000E010E004C00E9453000F5FEE
:1006D0001F4F809110019091110108171907ACF379
:1006E0001092130110921201109211011092100138
:1006F0005D9A5B9A5E9A2B9AC3010197F1F7A0CE9F
:10070000219A249A259A579A0895219824982598F1
:10071000579808955C9A86E08A95F1F700C089B1F0
:10072000881F8827881F880F880F880F1D9984606D
:100730001C998260199981605C98089580FF0CC0B3
:10074000299A81FF0BC02C9A82FF0AC02D9A83FF41
:1007500009C05F9A0C948A032998F3CF2C98F4CFA0
:100760002D98F5CF5F98F6CFCF93DF935A980E94DC
:100770008503289A0E948A03C82F0E948A0390E169
:10078000C99FE00111248C2B87FDF0CFDF91CF9121
:100790000895CF93C82F0E94B40328985A980E94B6
:1007A00080038C2F82958F700E949E038C2F8F70F8
:1007B0000E949E030E9485038FE0CF910C949E03BC
:1007C000CF93C82F0E94B40328985A9A0E9480039E
:1007D0008C2F82958F700E949E038C2F8F700E94A9
:1007E0009E030E9485038FE0CF910C949E0328986E
:1007F0005A985C98529A209A549A0E9480032FE546
:100800008AEE90E0215080409040E1F700C0000067
:1008100083E00E949E038FE295E70197F1F700C005
:10082000000083E00E949E038FE097E20197F1F7BA
:1008300000C0000083E00E949E038FE097E20197D2
:10084000F1F700C0000082E00E949E030E94B40302
:1008500088E20E94C90388E00E94C90381E00E94E7
:10086000C90386E00C94C903CF93DF93EC0189910F
:10087000811103C0DF91CF9108950E94E003F7CF6B
:1008800090E4699FB0011124862B80680C94C90301
:100890000C94C9038F708A3018F4805D0C94E003C7
:1008A000895CFCCFCF93C82F82958F700E944A0439
:1008B0008C2FCF910C944A04CF93C82F892F0E947C
:1008C00052048C2FCF910C94520497FB092E0726CB
:1008D0000AD077FD04D00CD006D000201AF4709511
:1008E00061957F4F0895F6F7909581959F4F0895F4
:1008F000AA1BBB1B51E107C0AA1FBB1FA617B70746
:1009000010F0A61BB70B881F991F5A95A9F7809561
:100910009095BC01CD010895FB019F01E894423000
:10092000C4F04532B4F44A3029F497FB1EF4909594
:1009300081959F4F642F77270E947804805D8A33CA
:100940000CF0895D8193CB010097A1F716F45DE26D
:1009500051931082C9010C94AD04DC01FC01672F96
:1009600071917723E1F7329704C07C916D93708386
:0E0970006291AE17BF07C8F30895F894FFCF49
:0A097E00583A2000593A20001400F6
:00000001FF
